:100000000C942A000C9434000C9434000C943400AA
:100010000C9434000C9434000C9434000C94340090
:100020000C9434000C9434000C9434000C94340080
:100030000C9434000C9434000C9434000C94340070
:100040000C9434000C9434000C9434000C94340060
:100050000C94340011241FBECFE5D8E0DEBFCDBF25
:100060000E9443000C944F000C940000A0988B9ABF
:10007000B89A0895989B04C09398C0989899FCCF1B
:10008000939AC09AF7CFA0988B9AB89A989B04C07D
:100090009398C0989899FCCF939AC09AF7CFF89408
:0200A000FFCF90
:00000001FF
