:100000000C9430000C943A000C943A000C943A0092
:100010000C943A000C943A000C943A000C943A0078
:100020000C943A000C943A000C943A000C943A0068
:100030000C943A000C943A000C943A000C943A0058
:100040000C943A000C943A000C943A000C943A0048
:100050000C943A000C943A000C943A000C943A0038
:1000600011241FBECFEFDFE0DEBFCDBF0E944401F1
:100070000C9449010C940000EFEF61E044E052E081
:1000800020E138E080E490E2EBBB7FEFA9E6F8E105
:100090007150A040F040E1F700C00000D8987FEF19
:1000A000A9E6F8E17150A040F040E1F700C000007F
:1000B000D9987FEFA9E6F8E17150A040F040E1F750
:1000C00000C00000DA987FEFA9E6F8E17150A04087
:1000D000F040E1F700C00000DB987FEFA9E6F8E10F
:1000E0007150A040F040E1F700C00000DC987FEFC5
:1000F000A9E6F8E17150A040F040E1F700C000002F
:10010000DD987FEFA9E6F8E17150A040F040E1F7FB
:1001100000C00000DE987FEFA9E6F8E17150A04032
:10012000F040E1F700C00000DF987FEFA9E6F8E1BA
:100130007150A040F040E1F700C000007BB376278B
:100140007BBB7BB375277BBB7BB374277BBB7BB34C
:1001500073277BBB7BB372277BBB7BB379277BBBCE
:100160007BB378277BBB7BB370587BBB7FEFA9E663
:10017000F8E17150A040F040E1F700C000007BB30F
:1001800076277BBB7BB375277BBB7BB374277BBB9D
:100190007BB373277BBB7BB372277BBB7BB3792796
:1001A0007BBB7BB378277BBB7BB370587BBB7FEF7C
:1001B000A9E6F8E17150A040F040E1F700C000006E
:1001C0007BB376277BBB7BB375277BBB7BB3742765
:1001D0007BBB7BB373277BBB7BB372277BBB7BB3C0
:1001E00079277BBB7BB378277BBB7BB370587BBB0A
:1001F0007FEFA9E6F8E17150A040F040E1F700C0C0
:1002000000007BB376277BBB7BB375277BBB7BB3BF
:1002100074277BBB7BB373277BBB7BB372277BBB12
:100220007BB379277BBB7BB378277BBB7BB37058D1
:100230007BBB7FEFA9E6F8E17150A040F040E1F709
:1002400000C000007BB376277BBB7BB375277BBBED
:100250007BB374277BBB7BB373277BBB7BB37227DA
:100260007BBB7BB379277BBB7BB378277BBB7BB323
:1002700070587BBB7FEFA9E6F8E17150A040F040D9
:10028000E1F700C0000000CF8FEF8ABB8BBB0E945C
:060290003C00F894FFCFD2
:00000001FF
