:100000000C942A000C9434000C9434000C943400AA
:100010000C9434000C9434000C9434000C94340090
:100020000C9434000C9434000C9434000C94340080
:100030000C9434000C9434000C9434000C94340070
:100040000C9434000C9434000C9434000C94340060
:100050000C94340011241FBECFE5D8E0DEBFCDBF25
:100060000E946F000C9480000C9400008FEF8ABBFC
:1000700087BB84BB81BB08958FEF8ABB87BB84BBE2
:1000800081BBAB01455F5F4F9B01265F3F4FDB01AB
:10009000FB018C918BBB819182BB8FEF99E6C8E10C
:1000A00081509040C040E1F700C000002E173F078C
:1000B00081F711964A175B0759F7DB01E9CFCF9318
:1000C000DF930F92CDB7DEB76983641738F4BE01B2
:1000D0006F5F7F4F88E390E00E943C00FFCF0F925C
:1000E000CDB7DEB78FEF8ABB87BB84BB81BB86E011
:1000F0008983BE016F5F7F4F88E390E00E943C00E0
:04010000F894FFCFA1
:00000001FF
