:100000000C942A000C9434000C9434000C943400AA
:100010000C9434000C9434000C9434000C94340090
:100020000C9434000C9434000C9434000C94340080
:100030000C9434000C9434000C9434000C94340070
:100040000C9434000C9434000C9434000C94340060
:100050000C94340011241FBECFE5D8E0DEBFCDBF25
:100060000E9458000C9466000C9400008FEF8ABB2D
:100070008BBB87BB88BB84BB85BB81BB82BB089520
:1000800088B382B3AC9BFCCFC29A929AAC9A88B3E5
:1000900082B3AC9BF5CFF8CF88B382B3AC9BFCCFD7
:1000A000C2989298AC9888B382B3AC9BF5CFF8CF46
:1000B0008FEF8ABB8BBB87BB88BB84BB85BB81BBF7
:1000C00082BB40E060E080E00E944000F894FFCFF7
:00000001FF
